S01400004D61657374726F6F204932432E73726563E8
S11300000C9434000C9451000C9451000C94510045
S11300100C9451000C9451000C9451000C94510018
S11300200C9451000C9451000C9451000C94510008
S11300300C9451000C9451000C9451000C945100F8
S11300400C9451000C9451000C9451000C945100E8
S11300500C9451000C9451000C9451000C945100D8
S11300600C9451000C94510011241FBECFEFD8E022
S1130070DEBFCDBF11E0A0E0B1E0E8E6FBE002C0E6
S113008005900D92A032B107D9F721E0A0E2B1E0CA
S113009001C01D92A234B207E1F70E9450020C94F1
S11300A0B2050C940000CF92DF92EF92FF926B01A5
S11300B07C0187B18F7C87B9443079F018F44130E2
S11300C031F023C0403191F04034C9F01EC0E9EB57
S11300D0F0E080818C7F80831DC0E9EBF0E08081BB
S11300E08D7F808380818160808314C0E9EBF0E0A0
S11300F080818E7F80838081826080830BC0E9EB66
S1130100F0E080818360808305C0E9EBF0E08081CA
S11301108C7F808360E074E284EF90E0A701960115
S11301200E949802CA01B9016051710981099109BB
S11301302091B900237042E050E0FA0102C0EE0FB2
S1130140FF1F2A95E2F79F01032E000C440B550B69
S11301500E9498022093B800ECEBF0E08081846068
S11301608083FF90EF90DF90CF90089584E980938F
S1130170BC008091BC0084FDFCCF089594EA909368
S1130180BC009091BC009923E4F79091B900987F4A
S1130190983099F590E0880F991F81608093BB0097
S11301A084E88093BC008091BC008823E4F7FB01C1
S11301B08091B900887F803421F00E94B60081E0EC
S11301C0089584E88093BC008091BC008823E4F700
S11301D08091B900887F883549F08091B900887F83
S11301E0803521F00E94B60081E008958091BB0023
S11301F080830E94B60080E0089581E0089580FF26
S113020004C09BB194609BB903C09BB19B7F9BB915
S113021081FF04C09BB198609BB903C09BB1977FD9
S11302209BB982FF04C09BB190619BB903C09BB191
S11302309F7E9BB983FF04C09BB190629BB903C0AE
S11302409BB19F7D9BB984FF04C09BB190649BB913
S113025003C09BB19F7B9BB985FF04C09BB1906891
S11302609BB903C09BB19F779BB986FF04C095B12E
S1130270916095B903C095B19E7F95B9882324F404
S113028085B1826085B9089585B18D7F85B908955A
S113029095B19B7F95B90E94FF0085B1886085B9AF
S11302A085E08A95F1F7000085B1877F85B98FE3F2
S11302B09FE10197F1F700C0000008958AB18C6FA7
S11302C08AB91BB884B18F6084B915B82FEF89EF50
S11302D090E0215080409040E1F700C0000088E3A6
S11302E00E9448018FE19EE40197F1F700C00000ED
S11302F088E30E9448018FE99FE00197F1F700C06D
S1130300000088E30E9448018FE99FE00197F1F71C
S113031000C0000088E30E9448018CE00E9448016C
S113032081E00E9448018FE39FE10197F1F700C04B
S1130330000086E00E944801089595B1946095B943
S11303400E94FF0085B1886085B985E08A95F1F740
S1130350000085B1877F85B98FE39FE10197F1F7AD
S113036000C0000008950F931F93CF93DF938C0177
S1130370C0E0D0E003C00E949D012196F801EC0F7B
S1130380FD1F80818111F7CFDF91CF911F910F91D4
S11303900895CF93613031F4CFE7C80F8C2F0E94BA
S11303A0480107C0623029F4CFEBC80F8C2F0E949C
S11303B048018C2F0E944801CF91089560E271E0BA
S11303C081E00E94BE0081111AC0809120011F9219
S11303D08F9385E091E09F938F931F9280E18F9399
S11303E081E291E09F938F930E94BA028DB79EB7EA
S11303F008960FB6F8949EBF0FBE8DBF08951F9246
S11304008F9380E091E09F938F931F9280E18F936D
S113041081E291E09F938F930E94BA028DB79EB7B9
S113042008960FB6F8949EBF0FBE8DBF089561E382
S113043071E082E00E94BE0081111AC080913101F6
S11304401F928F9385E091E09F938F931F9280E199
S11304508F9382E391E09F938F930E94BA028DB7AA
S11304609EB708960FB6F8949EBF0FBE8DBF089531
S11304701F928F9380E091E09F938F931F9280E16E
S11304808F9382E391E09F938F930E94BA028DB77A
S11304909EB708960FB6F8949EBF0FBE8DBF089501
S11304A00E945E0144E064E670E080E090E00E9417
S11304B0530078940E94DE010E94170262E081E0FA
S11304C00E94C90189E091E00E94B30162E081E0E9
S11304D00E94C90181E291E00E94B30161E082E0DF
S11304E00E94C90182E191E00E94B30162E089E0C7
S11304F00E94C90189E091E00E94B30162E089E0B1
S11305000E94C90182E391E00E94B30161E089E0A5
S11305100E94C90187E191E00E94B3012FEF88EFA7
S113052095E1215080409040E1F700C00000C2CF27
S1130530A1E21A2EAA1BBB1BFD010DC0AA1FBB1FE3
S1130540EE1FFF1FA217B307E407F50720F0A21B55
S1130550B30BE40BF50B661F771F881F991F1A94C2
S113056069F760957095809590959B01AC01BD01EC
S1130570CF010895AEE0B0E0E0ECF2E00C94890520
S11305800D891E898F89988D26E02C831A8309830F
S113059097FF02C080E090E801979E838D83AE01AF
S11305A0455E5F4F698D7A8DCE0101960E94EA0205
S11305B04D815E8157FD0AC02F813885421753074C
S11305C00CF49A01F801E20FF31F10822E96E4E076
S11305D00C94A505ABE0B0E0E0EFF2E00C947B05F1
S11305E06C017B018A01FC0117821682838181FFE1
S11305F0CCC1CE0101963C01F6019381F70193FD34
S1130600859193FF81917F01882309F4BAC18532D2
S113061039F493FD859193FF81917F01853229F40B
S1130620B60190E00E94E104E7CF912C212C312CFB
S1130630FFE1F315D8F08B3279F038F4803279F099
S11306408332A1F4232D20611DC08D3261F08033EB
S113065069F4232D216016C0832D8260382EE32D8A
S1130660E4603E2E2AC0F32DF8601DC037FC2DC077
S113067020ED280F2A3040F08E32B9F436FC81C1C7
S1130680232D2064322E19C036FE06C08AE0989EBF
S1130690200D1124922E11C0EAE02E9E200D11246B
S11306A0222EF32DF0623F2E08C08C3621F4832DC8
S11306B08068382E02C0883641F4F70193FD859195
S11306C093FF81917F018111B3CF982F9F7D955422
S11306D0933028F40C5F1F4F9FE399830DC083363A
S11306E031F0833771F0833509F059C021C0F80126
S11306F0808189830E5F1F4F88248394912C53013A
S113070013C02801F2E04F0E511CF801A080B18003
S113071036FE03C0692D70E002C06FEF7FEFC501A4
S11307200E94D6044C018201F32DFF773F2E16C0A0
S1130730280122E0420E511CF801A080B18036FE4F
S113074003C0692D70E002C06FEF7FEFC5010E9406
S1130750CB044C01F32DF0683F2E820133FC1BC007
S1130760822D90E088169906B0F4B60180E290E0FC
S11307700E94E1042A94F4CFF50137FC859137FEF9
S113078081915F01B60190E00E94E10421102A9456
S113079021E0821A91088114910471F7E8C084362B
S11307A011F0893641F5F80137FE07C06081718187
S11307B0828193810C5F1F4F08C060817181072E75
S11307C0000C880B990B0E5F1F4FF32DFF763F2E05
S11307D097FF09C090958095709561957F4F8F4FD5
S11307E09F4FF0683F2E2AE030E0A3010E941D05D0
S11307F0882E861845C0853731F4232D2F7EB22EDE
S11308002AE030E025C0932D997FB92E8F36C1F0B0
S113081018F4883579F0B5C0803719F0883721F09D
S1130820B0C0E92FE061BE2EB4FE0DC0FB2DF46014
S1130830BF2E09C034FE0AC0292F2660B22E06C07E
S113084028E030E005C020E130E002C020E132E0E1
S1130850F801B7FE07C060817181828193810C5FCA
S11308601F4F06C06081718180E090E00E5F1F4FD2
S1130870A3010E941D05882E8618FB2DFF773F2EAD
S113088036FE0DC0232D2E7FA22E891458F434FE7B
S11308900BC032FC09C0832D8E7EA82E05C0B82C57
S11308A0A32C03C0B82C01C0B92CA4FE0FC0FE01B8
S11308B0E80DF11D8081803321F49A2D997EA92EB3
S11308C009C0A2FE06C0B394B39404C08A2D8678EE
S11308D009F0B394A3FC11C0A0FE06C0B21488F4BE
S11308E0280C922C9B180EC0B21460F4B60180E25E
S11308F090E00E94E104B394F7CFB21418F42B18DB
S113090002C0982C212CA4FE10C0B60180E390E014
S11309100E94E104A2FE17C0A1FC03C088E790E096
S113092002C088E590E0B6010CC08A2D867859F0A3
S1130930A1FE02C08BE201C080E2A7FC8DE2B601F9
S113094090E00E94E104891438F4B60180E390E059
S11309500E94E1049A94F7CF8A94F301E80DF11D03
S11309608081B60190E00E94E1048110F5CF22203D
S113097009F442CEB60180E290E00E94E1042A9498
S1130980F6CFF6018681978102C08FEF9FEF2B96F9
S1130990E2E10C949705FC01059061507040011050
S11309A0D8F7809590958E0F9F1F0895FC01615094
S11309B0704001900110D8F7809590958E0F9F1F7D
S11309C008950F931F93CF93DF93FB01238121FDA0
S11309D003C08FEF9FEF2CC022FF16C046815781C2
S11309E0248135814217530744F4A081B1819D01CC
S11309F02F5F3F4F318320838C93268137812F5F74
S1130A003F4F3783268314C08B01EC01FB01008424
S1130A10F185E02D0995892BE1F6D80116968D9183
S1130A209C911797019617969C938E931697CE01D7
S1130A30DF91CF911F910F910895FA01AA272830D1
S1130A4051F1203181F1E8946F936E7F6E5F7F4F97
S1130A508F4F9F4FAF4FB1E03ED0B4E03CD0670F13
S1130A60781F891F9A1FA11D680F791F8A1F911D66
S1130A70A11D6A0F711D811D911DA11D20D009F4B6
S1130A8068943F912AE0269F11243019305D3193F8
S1130A90DEF6CF010895462F4770405D4193B3E0E1
S1130AA00FD0C9F7F6CF462F4F70405D4A3318F088
S1130AB0495D31FD4052419302D0A9F7EACFB4E039
S1130AC0A6959795879577956795BA95C9F70097F1
S1130AD06105710508959B01AC010A2E0694579592
S1130AE0479537952795BA95C9F7620F731F841FE9
S1130AF0951FA01D08952F923F924F925F926F927F
S1130B007F928F929F92AF92BF92CF92DF92EF9299
S1130B10FF920F931F93CF93DF93CDB7DEB7CA1B1A
S1130B20DB0B0FB6F894DEBF0FBECDBF09942A8845
S1130B30398848885F846E847D848C849B84AA84ED
S1130B40B984C884DF80EE80FD800C811B81AA817A
S1130B50B981CE0FD11D0FB6F894DEBF0FBECDBF45
S10B0B60ED010895F894FFCFA4
S1130B684572726F722025750020202020202020D5
S1130B7820004144433A00436F756E7465723A002D
S9030000FC
