S0120000536C617665322D4932432E73726563FA
S11300000C9434000C9446000C9446000C94460066
S11300100C9446000C94BC000C9446000C944600CE
S11300200C9446000C9446000C9446000C94CB00AF
S11300300C9446000C9446000C9446000C94460024
S11300400C9446000C9446000C9446000C94460014
S11300500C9446000C9446000C9446000C94460004
S11300600C9455000C94460011241FBECFEFD8E029
S1130070DEBFCDBF21E0A0E0B1E001C01D92A630FB
S1130080B207E1F70E942D010C9441010C94000089
S113009097B19F7E97B990E0880F991F81608093F4
S11300A0BA0085E48093BC0008951F920F920FB6A6
S11300B00F9211248F93EF93FF938091B900887F5F
S11300C08039C9F038F4803781F08038A1F0803667
S11300D061F50BC0883BC9F018F4883AB1F025C02B
S11300E0803CE9F0883CD9F020C0ECEBF0E0808162
S11300F0806880831FC08091BB0080930401ECEB77
S1130100F0E080818068808315C080910501809330
S1130110BB00ECEBF0E08081806C80830BC0ECEBE7
S1130120F0E08081806C808305C0ECEBF0E080819E
S113013080698083FF91EF918F910F900FBE0F9094
S11301401F901895EDE6F0E0808180658083E8E6F5
S1130150F0E08081846080830895109280008AE0BA
S1130160809381008FEC97E09093890080938800BE
S113017082E080936F0008951F920F920FB60F9242
S113018011248F9381E0809300018F910F900FBE13
S11301900F901F9018951F920F920FB60F92112473
S11301A02F938F939F9380910001882309F44DC06E
S11301B0809100018F5F8093000180910001843160
S11301C008F443C01092000199B189B18074292FB9
S11301D0207194FD13C09091020191110FC0909170
S11301E005019F5F9093050190910501903118F0EE
S11301F09FE09093050191E09093020121111092E8
S11302000201811112C09091010191110EC09091CF
S1130210050191509093050190910501903110F0E2
S11302201092050191E09093010181111092010156
S11302309091050180910301981739F0809105018F
S113024088B980910501809303019F918F912F912B
S11302500F900FBE0F901F901895F8948AB18F7A63
S11302608AB98BB180658BB987B18F6087B918B8AB
S113027082E00E9448000E94A2000E94AD0078948F
S1090280FFCFF894FFCF4C
S9030000FC
