S0120000536C617665312D4932432E73726563FB
S11300000C9434000C9446000C9446000C94460066
S11300100C9446000C9446000C9446000C94460044
S11300200C9446000C9446000C9446000C94460034
S11300300C9446000C9446000C9446000C94460024
S11300400C9446000C9446000C9446000C94460014
S11300500C9446000C949B000C9446000C944600AF
S11300600C94C7000C94460011241FBECFEFD8E0B7
S1130070DEBFCDBF21E0A0E0B1E001C01D92A230FF
S1130080B207E1F70E9414010C9437010C940000AC
S1130090ECE7F0E090819064908390819F77908367
S11300A090819F7D9083EAE7F0E090819868908347
S11300B0823021F48081816080830895843031F41A
S11300C0EAE7F0E08081826080830895883031F42B
S11300D0EAE7F0E08081836080830895803131F421
S11300E0EAE7F0E08081846080830895803231F40F
S11300F0EAE7F0E08081856080830895803831F4F8
S1130100EAE7F0E08081876080830895EAE7F0E021
S11301108081876080830895ECE7F0E08081807FB0
S113012080838081826080830895EAE7F0E08081A3
S11301308064808308951F920F920FB60F9211244A
S11301402F933F934F935F936F937F938F939F93DB
S1130150AF93BF93EF93FF930E948C00809178003C
S113016090917900809301010E949500FF91EF9195
S1130170BF91AF919F918F917F916F915F914F91BB
S11301803F912F910F900FBE0F901F9018951F92C3
S11301900F920FB60F9211248F93EF93FF938091D8
S11301A0B900887F8039C9F038F4803781F080380D
S11301B0A1F0803661F50BC0883BC9F018F4883A89
S11301C0B1F025C0803CE9F0883CD9F020C0ECEBCC
S11301D0F0E08081806880831FC08091BB008093A1
S11301E00001ECEBF0E080818068808315C0809191
S11301F001018093BB00ECEBF0E08081806C808394
S11302000BC0ECEBF0E08081806C808305C0ECEBEC
S1130210F0E0808180698083FF91EF918F910F904E
S11302200FBE0F901F90189581E00E942A0180E86C
S113023090E00E9448000E948C000E9495007894EF
S11302402FEF81EE94E0215080409040E1F700C010
S11302500000F6CF97B19F7E97B990E0880F991F61
S113026081608093BA0085E48093BC000895F8947B
S1050270FFCFBA
S9030000FC
